:03000000120003E8
:0300330002005276
:1018F7001958195C197A199819AE19C019CE19D83F
:03190700000000DD
:10000300E4F5D0C2AF75819712001675D0001212B5
:030013009580FED7
:0C0016009018F778087E197F0A1218EE87
:0100220022BB
:10190A0012010101FF0000401D070310010001023E
:10191A00030109023C0001010480290904000006B0
:10192A00FF00000507050102400001070502024009
:10193A00000107050302400001070581024000017A
:10194A0007058202400001070583024000010403E3
:10195A0009041E034500690063006F006E00200041
:10196A004E006500740077006F0072006B00730010
:10197A001E034500690063006F006E0020004400EA
:10198A0069007600610020005500530042001603EA
:10199A003C002D002D0053006500720023002D002D
:1019AA002D003E0012035300740061006E006400B3
:1019BA006100720064000E034900500041004300B8
:1019CA002D0058000A0330003000390034000403A7
:1019DA003F00020D0B020D10020C68020C80020C73
:1019EA008A020C94020CA3020CB0020CC3020CE88B
:1019FA00020CEF80000000000002000181000000DC
:101A0A0000000200028200000065000200030203D7
:101A1A0000006500000005020100006500000007E3
:101A2A00800600010000787808800600020000782D
:101A3A00780980067303787878780A8008000000AD
:101A4A000001000B00096E00000000000C810A0072
:101A5A0000000001000D40E06E006C6800000FC03D
:101A6A00E100006C680100100117FF03154602151A
:101A7A008A05159C0715F608162F0916440A1659E1
:101A8A000B17310C17400D17520E17610F177310F1
:021A9A0017A48F
:0E002300ED1D6009EF0FF97700ED1D70F7225B
:100036007C05EC600D7DC6ED60041DED70FC1CECCE
:1000460070F31FBFFF011EEE4F70E522C0D053D8DC
:10005600EFD0D032907FA5E054406008907FA5E0B5
:10006600544070F8907FA57480F022907FA574406C
:10007600F022907FA6EFF0907FA5E05401700890E3
:100086007FA5E0540160F822907FA5E05401700836
:10009600907FA5E0540160F8907FA6E0228E1F8F26
:1000A600208D2112005A7FA2120078AF1F1200780D
:1000B600AF20120078AF2112007812007112005A98
:1000C6007FA2120078120071907FA5E0540260EDC5
:1000D600228E228F2312005A7FA2120078AF22129C
:1000E6000078AF2312007812007112005A7FA31213
:1000F6000078907FA57420F012008E12008EF524F1
:10010600120071E52422901B3EEFF0901B3FEDF0AC
:10011600907FE3741BF0907FE4743EF0907F98E04C
:1001260054EFF0907FE5E0907F98E04410F0907FE8
:10013600E5E022901B3EEFF0907FE3741BF0907F8A
:10014600E4743EF0907F98E054EFF0907FE5E0FF96
:10015600907F98E04410F0907FE5EFF0901B3FE031
:1001660022531803E518F4C40354F8FD7F3F120127
:100176000C228F828E83E0FAEF2401F582E43EF5AD
:1001860083E0C39A228F828E83E0FA04F0EF240282
:10019600F9E43EF8E92AF582E438F583E0228F8215
:1001A6008E83E02DFAEF2402F9E43EF8E92AF5827F
:1001B600E438F583E022EF2401F582E43EF583E09E
:1001C6008F828E83FAE0C39A1422AB05EF2401F5E1
:1001D60082E43EF583E0FA04F0EF2402F9E43EF807
:1001E600E92AF582E438F583EBF0228F828E83E0EC
:1001F6002DF0228F288D298B2A7F487E251201BC5F
:1002060024AD50667D027F487E251201D07DFF7F9A
:10021600487E251201D090264EE0FD7F487E2512AD
:1002260001D07D077F487E251201D0AD8C7F487EA8
:10023600251201D0AD287F487E251201D0AD297F39
:10024600487E251201D0AD2A7F487E251201D0AD09
:10025600257F487E251201D0AD267F487E251201D6
:10026600D0AD277F487E251201D090264EE004F0BF
:10027600227D807F3C12010C7D677F3E12010C7D42
:10028600187F3F12010C7D007F6212010C7D007FFA
:100296003012010C7D407F3212010C7D037F571214
:1002A600010C7DB27F6512010C7D2B7F7012010C53
:1002B6007D2B7F8012010C7D237F2012010C7DF7A0
:1002C6007F6112010C7D2E7F6012010C228F2B8D17
:1002D6002CE52BB40114E52CB4030F7F5012013921
:1002E6004408FD7F5012010C8049E52BB40214E549
:1002F6002CB4030F7F501201394410FD7F501201B8
:100306000C8030E52BB40114E52CB4020F7F50129B
:10031600013954F7FD7F5012010C8017E52BB4020A
:1003260012E52CB4020D7F5012013954EFFD7F50B7
:1003360012010CE52C6009146031146029147064F4
:10034600E52B146005146010805A7F4E1201395453
:10035600F5FD7F4E12010C227F4E12013954EBFD42
:100366007F4E12010C22752D008003752D80E52B22
:10037600146005146017802CAD2D7F4412010C7F8C
:100386004E120139440AFD7F4E12010C22740145BA
:100396002DFD7F4512010C7F4E1201394414FD7F5D
:1003A6004E12010C227DCB7F2212010C7D007F5460
:1003B60012010C7D417F2112010C228F2EE52E7039
:1003C60005752F708008E52EB40146752F8075F0EF
:1003D60005E52EA4247FF9770075F005E52EA42403
:1003E60080F975F005E52EA42481F975F005E52E52
:1003F600A42482F975F005E52EA42483F97DC07442
:1004060002452FFF12010C7D417401452FFF120199
:100416000C228F308D31E53060267D0F7F2E120144
:100426000C7D017F2112010C7990E76004799677A3
:100436000179917700798EE4F709F77992770022AE
:10044600798FE531F719E4F722AC32EF24FE402824
:1004560075F005EFA4247FF9770175F005EFA42464
:1004660082F9A70575F005EFA42481F9A70375F0B5
:1004760005EFA42483F9A704228F338D34E5337066
:1004860005753570800DE533B40102800302055809
:1004960075358075F005E533A42480F97701E534D8
:1004A6006005753400800375340175F005E533A4E5
:1004B6002481F9E760167D8874024535FF12010C28
:1004C6007D0074034535FF12010C80147DC874024B
:1004D6004535FF12010C7D0174034535FF12010CF1
:1004E60075F005E533A42482F9E724F1402AE533C3
:1004F600701374804534FD7F4812010C7D887F514E
:1005060012010C804374804534FD7F4A12010C7D34
:10051600887F5212010C8030E53370177D807F484A
:1005260012010C7D817F4912010C7D987F511201C9
:100536000C80157D807F4A12010C7D817F4B120154
:100546000C7D987F5212010C7D4174014535FF12D6
:10055600010C228F36E53670057537708008E53652
:10056600B4013B75378075F005E536A42480FAF9A9
:10057600E7602BEAF9770075F005E536A42481F9E2
:100586007D0074034537FF12010C7DC074024537A8
:10059600FF12010C7D4174014537FF12010C227FC9
:1005A6002E120139F538540870030206C15338F08B
:1005B60085381D79957700E538700302066124F0C9
:1005C600602B24D0700302063F24F07003020661FC
:1005D60024E070030206C124F0604024C0601624A3
:1005E600F0601224E070030206C10206AF7D0F7FA1
:1005F6002E12010C22799777017D8F7F2E12010C26
:100606007D017F2112010C79927707799377FF0993
:1006160077FF799177007995770422799777017931
:1006260092E7FA64076004EAB4080579927706222D
:10063600799177067995770222799777017992E70A
:10064600FA64066004EAB40709799277087995771F
:1006560001227991E7B40663770822799777017DBD
:100666000F7F2E12010C7992E724F96005146006BB
:1006760080107995770179937700097728799077B3
:10068600002279927700798EE70947602E7991E703
:1006960060297D017F2112010C7996770179937784
:1006A600FF0977FF79917700227527007526008567
:1006B60038257B317D4C7F3F1201F9228F398C3AE8
:1006C6008D3B8A3C8B3DE53D2405F582E53C3401B6
:1006D600F583E0F541853947E539B4020280030226
:1006E6000780754F20754521755200755300755466
:1006F60026755028754800754A207549017555F8C4
:100706007F60120139421C7410551C60061205A543
:10071600531CEF7997E770030207C1AF3DAE3C1259
:1007260001BC24F340030207C1AD39AF3DAE3C1214
:1007360001D07D0CAF3DAE3C1201D0E53D2406F55F
:1007460082E53C3401F583E0FD04F0AF3DAE3C129A
:1007560001D07D09AF3DAE3C1201D0754000E540A9
:10076600248EF9E7FDAF3DAE3C1201D00540E540D1
:1007760024F750EA799777008041E5397008754685
:1007860070754980800675468075494085464FE5F7
:10079600464401F545740A4546FAF5528A53E5463C
:1007A6004406F554E5464408F55075F005E539A4C8
:1007B6002481F98748754A407555907F6012013942
:1007C600421CE549551C7003020859AF4F12013906
:1007D6004241741055416012E53B2404F582E53A26
:1007E6003401F583E54AF05341EF740C5541605AE4
:1007F600854127E53B2406F582E53A3401F583E099
:10080600F5268539257B727D657F581201F9E54805
:100816007011E53B2404F582E53A3401F58374FF53
:10082600F08024E53B2407F582E53A3401F583E5BB
:100836008CF0E53B2404F582E53A3401F583E4F0D7
:100846007D01AF4512010C5341F3E5417005E549C1
:10085600F4521CE53B2404F582E53A3401F583E0C5
:10086600704CE53B2407F582E53A3401F583E0F464
:1008760004258CFAE555C39A5034752700E53B24C8
:1008860006F582E53A3401F583E0F5268539257BC0
:100896006F7D747F581201F9E53B2407F582E53A2E
:1008A6003401F583E58CF07D01AF4512010CE53B83
:1008B6002404F582E53A3401F583E07003020D74F1
:1008C600853B82853A83E0FAE53B2401F582E435EF
:1008D6003AF583E0C39AF53E24FC4003020D747D8D
:1008E60003AF3BAE3A1201A4FB7A00EB2404FBE40F
:1008F6003AFAAD3E7C00D3EB9DEA9C30D202B2E7D9
:1009060020E703020D74E53B2407F582E53A34013E
:10091600F583E58CF0AF3BAE3A12018BF547AF3B62
:10092600AE3A12018BF54BAF3BAE3A12018BF54C4A
:10093600AF3BAE3A12018BF53FE53B2406F582E567
:100946003A3401F583E0FA654C602DE53B2406F563
:1009560082E53A3401F583E0F527854C268539256D
:100966007B517D457F531201F9E53B2406F582E56F
:100976003A3401F583E54CF0E53B2406F582E53A89
:100986003401F583E004F0E54B604114602E24FE4B
:10099600600D14603714602424FE6003020C0EAF51
:1009A600391205597D01AF4512010CE53B2404F5CA
:1009B60082E53A3401F583E4F0020D22E53B240496
:1009C600F582E53A3401F583E04480F0E53B240402
:1009D600F582E53A3401F583E0B4FF4FAD3FAF3B16
:1009E600AE3A1201F17401654B600AE54BB405029B
:1009F6008003020D22E53B2404F582E53A3401F535
:100A060083E0F527853F268539257B627D617F5802
:100A16001201F97D01AF4512010CE53B2404F58274
:100A2600E53A3401F583E4F0020D22E539B40228F3
:100A360074E0551DFA64C0601F752700752600799D
:100A46009287257B317D447F211201F9AD3FAF3B73
:100A5600AE3A1201F1020D22E53B2404F582E53A95
:100A66003401F583E0547FF540E53FC395405003DC
:100A7600853F40853B82853A83E0F54DE53B240280
:100A8600F557E4353AF556E5406014E557254DF53A
:100A960082E43556F583E0FDAF5212010C054DC3D5
:100AA600E5409401F53E602AE557254DF582E4358B
:100AB60056F583E0F551054D901B3EF0907FE374AB
:100AC6001BF0907FE4743EF0907FE5E0153EE53E36
:100AD60070D6853B82853A83E54DF0E53FC3954068
:100AE600F53FE53B2404F582E53A3401F583E0C39E
:100AF6009540F0E53F7003020B97853B82853A836C
:100B0600E014F0FCE53B2402FBE4353AFAEB2CF565
:100B160082E43AF583E53FF0853B82853A83E0142B
:100B2600F0FCE53B2402FBE4353AFAEB2CF582E4D3
:100B36003AF583E54CF0853B82853A83E014F0FC78
:100B4600E53B2402FBE4353AFAEB2CF582E43AF570
:100B560083E54BF0853B82853A83E014F0FCE53B68
:100B66002402FBE4353AFAEB2CF582E43AF583E508
:100B760047F0E53B2404F582E53A3401F583E05479
:100B86007FF0E53B2406F582E53A3401F583E54C32
:100B9600F0E53B2404F582E53A3401F583E0603361
:100BA600E53B2404F582E53A3401F583E054807090
:100BB60022E5487003020D22853B82853A83E0FADE
:100BC600E53B2401F582E4353AF583E0C39A6003F8
:100BD600020D22E5487011E53B2404F582E53A341E
:100BE60001F583E054806005753E028003753E087A
:100BF600AD3EAF4512010CE53B2404F582E53A34DF
:100C060001F583E4F0020D22754400754300754238
:100C160000E53F600B153FAF3BAE3A12018BF54244
:100C2600E53F600B153FAF3BAE3A12018BF543E54E
:100C36003F600B153FAF3BAE3A12018BF544E53FE3
:100C4600600D153FAF3BAE3A12018BE53F70F3E501
:100C56004B24F5B40B004003020D229019DCFA2A4E
:100C66002A73E53B2404F582E53A3401F583E4F082
:100C76007D017F2112010C020D22AD44AF43120209
:100C8600D3020D22AD43AF42120418020D22854451
:100C960032AB43AD42AF3912044F020D227F001230
:100CA60003C17F011203C1020D22E54724FE406CF9
:100CB60075F005E547A4247FF97700805FAD42AF64
:100CC6003912047FE53B2404F582E53A3401F583C5
:100CD600E4F0E53D2404F582E53C3401F583E4F0D7
:100CE600803AAF391205598033AF391205597D0163
:100CF600AF4512010CE53B2404F582E53A3401F5D3
:100D060083E4F080171203AB80127D8F7F2E1201D1
:100D16000C7993770109779079907701E53B240464
:100D2600F582E53A3401F583E06043853B82853AF6
:100D360083E0FAE53B2401F582E4353AF583E0C326
:100D46009AF53E24FC50277D03AF3BAE3A1201A430
:100D5600FB7A00EB2404FBE43AFAAD3E7C00D3EBCD
:100D66009DEA9C30D202B2E730E70302090C7F60AD
:100D7600120139421CE53D2404F582E53C3401F5B7
:100D860083E06003020E1CE549551C7003020E1C2D
:100D9600AF4F120139FA4541F54154C07003020EB6
:100DA6001CE53D2404F582E53C3401F583E54AF073
:100DB600E5487056AF54120139F53E7480554160CE
:100DC6000BE53E6007E539B40202153EAA4A1AE56C
:100DD6003E5AF53EFAE53D2404F582E53C3401F53C
:100DE60083EAF0700FE53D2404F582E53C3401F515
:100DF60083E54AF0748055416010E53D2404F58290
:100E0600E53C3401F583E04480F053413FE5417011
:100E160005E549F4521CE53D2404F582E53C340120
:100E2600F583E070030210CCE53D2404F582E53C31
:100E36003401F583E0B4FF028003020EC8AF3DAE75
:100E46003C1201BC24FC40030210CCE539B4020577
:100E5600753E078003753E03AD47AF3DAE3C1201BC
:100E6600D0AD3EAF3DAE3C1201D0E53D2406F58245
:100E7600E53C3401F583E0FD04F0AF3DAE3C1201E4
:100E8600D07D00AF3DAE3C1201D0E53D2404F58295
:100E9600E53C3401F583E4F0AF50120139C0E0AF10
:100EA6003DAE3C1201BCF527853925D0028A267B4A
:100EB600627D617F521201F97D80AF4512010C02FD
:100EC60010CCE5487031E53D2404F582E53C34015B
:100ED600F583E054806020AF50120139F53E54F09E
:100EE600FA64A06012E53D2404F582E53C3401F580
:100EF6008374FFF0020D74E53D2404F582E53C346D
:100F060001F583E0547FF540E53D2401F582E435A3
:100F16003CF583E0853D82853C83FAE0C39A14FB69
:100F26007A00AD407C00ED2408FDE43CFCD3ED9B4B
:100F3600EC9A30D202B2E720E7030210CCE540700B
:100F4600030210ADE53D2404F582E53C3401F5834A
:100F5600E054806018E54024DF401285403FE539C3
:100F6600B40205753E058015753E018010753F205B
:100F7600E539B40205753E048003753E00E53D245F
:100F860001F582E4353CF583E0FA04F0E53D240200
:100F9600FDE4353CFCED2AF582E43CF583E547F0BB
:100FA600E53D2401F582E4353CF583E0FA04F0E5FD
:100FB6003D2402FDE4353CFCED2AF582E43CF58354
:100FC600E53EF0E53D2406F582E53C3401F583E097
:100FD600FA04F0E53D2401F582E4353CF583E0FBB7
:100FE60004F0E53D2402FDE4353CFCED2BF582E4FE
:100FF6003CF583EAF0E53D2401F582E4353CF583D2
:10100600E0FA04F0E53D2402FDE4353CFCED2AF56A
:1010160082E43CF583E53FF0E53D2401F582E435C5
:101026003CF583E0F54EE53D2402F559E4353CF503
:1010360058AF53120139FAE559254EF582E4355871
:10104600F583EAF0054EE540C3953FF540E53D24BE
:1010560004F582E53C3401F583E0C3953FF0153F86
:10106600E53F602E907FE3741BF0907FE4743EF0C2
:10107600907FE5E53EF0901B3EE0F53EE559254EB6
:10108600F582E43558F583E53EF0054E153FE53F1C
:1010960070D2E53D2401F582E4353CF583E54EF05A
:1010A600E5406003020F4A7D80AF4512010CE53D25
:1010B6002404F582E53C3401F583E4F0E539B40215
:1010C600028003020D74E53D2405F582E53C3401FA
:1010D600F583E541F0227DFE7F2E12010C7F2E1254
:1010E60001397F0A7E001200367D047F6212010CF0
:1010F6007D807F3012010C907F98E04420F0907F35
:1011060098E04440F0228E5A8F5B8C5C8D5D8A5E3F
:101116008B5F855D82855C83E0540260030211F675
:10112600E55D2401F582E4355CF583E0F560E55B79
:101136002401F582E4355AF583E0FA855B82855A07
:1011460083FBE0C39B14FBE560D39B40030211F6CF
:101156008A62E55B2402F564E4355AF563E55F24AB
:1011660003F582E4355EF583E0AB607A00FCEBC301
:101176009404FBEA9400FAEC6B7003EA602AE55FDC
:101186002402F582E4355EF583E0F527E55F240366
:10119600F582E4355EF583E0F5268560257B4C7D9A
:1011A6004F7F501201F9803A856061E560602585C0
:1011B6005F82855E83E0FAE5642562F582E4356345
:1011C600F583EAF0055FE55F7002055E056215616D
:1011D600E56170DBE55B2401F582E4355AF583E5CC
:1011E60062F0E55D2401F582E4355CF5837440F038
:1011F600228E658F668C678D688A698B6A856882A0
:10120600856783E0540260030212948566828565D1
:1012160083E0FAE5662401F582E43565F583E0C3EB
:101226009AF56B24FC50677D03AF66AE651201A488
:101236002404F56CD3956B5055856682856583E0ED
:10124600F56DE5662402F56FE43565F56E856C6B24
:10125600E56C6023E56F256DF582E4356EF583E078
:10126600856A82856983F0056AE56A700205690503
:101276006D156BE56B70DD856682856583E56DF0C2
:10128600E5682401F582E43567F583E56CF0229084
:101296007FD67406F0907F92E4F075890175881008
:1012A60043D820907FA104F0907FE0E4F0907FE1A6
:1012B600F0907FDE740FF0907FDFF0758E01907FE7
:1012C6009C7430F0907F93F0907FE274D2F0907F20
:1012D60095E4F0907F9E74FBF0907F9874B8F0755B
:1012E6007201E57225E0FA24C5F582E4347FF583C0
:1012F6007440F0E57225E0FA24B4F582E4347FF513
:10130600837402F00572E57224FC50D6757200AD46
:10131600727C007F087E011218C474202FF5787441
:10132600203EF577857882857783E4F0E578240199
:10133600F582E43577F583E4F0E5782402F582E575
:10134600773401F583E4F0A3F0E5782404F582E52B
:10135600773401F583E4F0E5782406F582E5773401
:1013660001F583E4F0E5782405F582E5773401F5A7
:10137600837410F00572E57224FA5093907F98E01A
:101386004402F0907F98E04401F07D0A7F8E1200BF
:10139600237D0F7F7F120023907F98E054F7F09013
:1013A6007F98E04420F0907F98E0547FF0907F98FB
:1013B600E054BFF07F0A7E00120036907F98E0442A
:1013C60008F07F057E00120036907F98E054DFF02B
:1013D6001202771203AB7F001203C17F011203C111
:1013E60075180012016775275E752600907F92E0DA
:1013F600F5257B727D657F761201F9E58C051E90D9
:101406007FDBE06009907F98E054FDF08007907FD5
:1014160098E04402F07518007980E76003751801BA
:101426007985E76003431802120167907FABE054A9
:10143600106009907FAB7410F0021295907FABE0BC
:101446005408601C907FAB7408F0907F98E04402CB
:10145600F07518001201671210DC4387010212951D
:10146600907FABE05401700302181A757B0075710A
:101476000074086571700302152C75F009E57BA4EC
:1014860025719019FD93249B601A24FD605D24FC50
:10149600603B24FE602624FB607424FB7003021765
:1014A600E10217C374E82571F582E4347FF583E021
:1014B600F570547870030217E10217F774E8257186
:1014C600F582E4347FF583E0F5750217E174E825CB
:1014D60071F582E4347FF583E0FB7A00E4FDE5797B
:1014E600FC4AF579EB4DF57A0217E174E82571F5BA
:1014F60082E4347FF583E0FF7E007D081218D9E58B
:101506007AFBE4FA4EF579EF4BF57A0217E174E8C7
:101516002571F582E4347FF583E0F57624F84003FF
:101526000217E10217F775F009E57BA425719019FA
:10153600FD93F57E901A7275F00E12189F0217F73A
:101546007480557060197407557025E0FA24B4F557
:1015560082E4347FF583E0907F005401F0801774B5
:1015660007557025E0FA24C4F582E4347FF583E05C
:10157600907F005401F0907F01E4F0907FB57402F3
:10158600F002180E907F00E4F0907F01F0907FB596
:101596007402F002180E747F557070030217F77408
:1015A600805570601F7407557025E0FA24B4F582E3
:1015B600E4347FF5837401F074075570907FD74447
:1015C60010F0801B7407557025E0FA24C4F582E4F8
:1015D600347FF5837401F0907FD7E5705407F0905F
:1015E6007FD7E04420F0907FD7E054DFF002180E5A
:1015F600747F557070030217F77480557060157408
:1016060007557025E0FA24B4F582E4347FF583E4C7
:10161600F002180E7407557025E0FA24C4F582E42A
:10162600347FF583E4F002180E75731975740A9009
:101636007FD4E573F0907FD5E574F002180E7573CC
:101646001975741C907FD4E573F0907FD5E574F01E
:1016560002180EE57625E02408F98773098774E5F4
:1016660076B403607FFF7E0F1200D7FB7A00C002BC
:10167600C0037FFE7E0F1200D7FF7E007D08121882
:10168600D9D0E02FFFD0E03EFEEF2400F574EE3413
:1016960001F573757C00AB7C7A00E5742BFFE5736E
:1016A6003AFE1200D7FA7400257CF582E4347FF501
:1016B60083EAF0057CE57C24EA50DB907FB574165E
:1016C600F002180E757D00E57625E02408F98702FC
:1016D6000987038B828A83E06039AB74AA73057429
:1016E600BBFF0205738B828A83E493FA7400257D1F
:1016F600F582E4347FF583EAF0057DE57625E0247E
:1017060008F987020987038B828A83E0FAE57DC39D
:101716009A40C7E57625E02408F987020987038BF6
:10172600828A83E0907FB5F002180E907F00E5195B
:10173600F0907FB57401F002180EE5756008B401EB
:101746000280030217F785751902180E907F00E5CF
:101756001AF0907FB57401F002180EE5756008B4B2
:10176600010280030217F785751A02180E7518FF15
:10177600120167907F98E054FEF0AD75AF7AAE79AE
:101786001200A3907F98E04401F0751800120167DB
:10179600AF7AAE791200D7FA6575606C805375180A
:1017A600FF120167AF7AAE791200D7907F00F090F2
:1017B6007FB57401F0751800120167804B75F0094A
:1017C600E57BA425719019FD93FA74E82571F582DD
:1017D600E4347FF583E0FBEAB5030B0571E571247C
:1017E600F74003021477057BE57B24F340030214DC
:1017F60074907FB47403F08015907F00E4F0907FBE
:1018060001F0907FB57402F0907FB47402F0907F7F
:10181600AB7401F07B407A7E7DC67C7F7F207E2084
:1018260012110C7B287A217D207C207F001206C2B3
:101836007B807A7E7DB67C7F7F287E211211F77BA6
:10184600C07A7D7DC87C7F7F307E2212110C7B386A
:101856007A237D307C227F011206C27B007A7E7D50
:10186600B87C7F7F387E231211F77B407A7D7DCA54
:101876007C7F7F407E2412110C7B487A257D407C3C
:10188600247F021206C27B807A7D7DBA7C7F7F48E8
:091896007E251211F70214032251
:10189F00CAC0E0E4936AA36009A3A3D5F0F5D0E032
:1018AF00FA22E493FAA3E493F5828A83D0E0FAD084
:0518BF00E0D0E0E4733D
:1018C400C0F0ED8FF0A4CFC5F0CCA42CCE8DF0A445
:0518D4002EFED0F02201
:1018D900ED540F600AFDC3EF33FFEE33FEDDF7224F
:0E18E900E493F608A3EFB582F7EEB583F32281
:00000001FF
