:03000000120003E8
:0300330002005276
:1019920019F319F71A151A331A491A5B1A651A6FCD
:0319A20000000042
:10000300E4F5D0C2AF75819412001675D0001213B7
:030013008080FEEC
:0C00160090199278087E197FA5121989B4
:0100220022BB
:1019A50012010101FF0000401D0700103000010277
:1019B500030109023C00010104802B090400000613
:1019C500FF0000050705010240000107050202406E
:1019D50000010705030240000107058102400001DF
:1019E5000705820240000107058302400001040348
:1019F50009041E034500690063006F006E002000A6
:101A05004E006500740077006F0072006B00730074
:101A15001E034500690063006F006E00200044004E
:101A2500690076006100200055005300420016034E
:101A35003C002D002D0053006500720023002D0091
:101A45002D003E0012035300740061006E00640017
:101A55006100720064000A03490050004100430020
:101A65000A03300030003900340004033F00020C43
:101A7500F4020D9D020CFA020D13020D2B020D3717
:101A8500020D40020D4E020D5A020D67020D8F0226
:101A95000D9680000000000002000181000000009A
:101AA500000200028200000065000200030203003C
:101AB50000650000000502010000650000000780C8
:101AC500060001000078780880060002000078789A
:101AD5000980067303787878780A8008000000008A
:101AE50001000B00096E00000000000C810A0000D7
:101AF500000001000D40E06E006C6800000FC0E1C1
:101B050000006C6801001001185E0315B70215FB93
:101B150005160D0716670816A00916B50A16CA0B8D
:101B250017A20C17B10D17C30E17D20F17E4101813
:011B350005AA
:0E002300ED1D6009EF0FF97700ED1D70F7225B
:100036007C05EC600D7DC6ED60041DED70FC1CECCE
:1000460070F31FBFFF011EEE4F70E522C0D053D8DC
:10005600EFD0D032907FA5E054406008907FA5E0B5
:10006600544070F8907FA57480F022907FA574406C
:10007600F022907FA6EFF0907FA5E05401700890E3
:100086007FA5E0540160F822907FA5E05401700836
:10009600907FA5E0540160F8907FA6E0228E1F8F26
:1000A600208D2112005A7FA2120078AF1F1200780D
:1000B600AF20120078AF2112007812007112005A98
:1000C6007FA2120078120071907FA5E0540260EDC5
:1000D600228E228F2312005A7FA2120078AF22129C
:1000E6000078AF2312007812007112005A7FA31213
:1000F6000078907FA57420F012008E12008EF524F1
:10010600120071E52422901B3EEFF0901B3FEDF0AC
:10011600907FE3741BF0907FE4743EF0907F98E04C
:1001260054EFF0907FE5E0907F98E04410F0907FE8
:10013600E5E022901B3EEFF0907FE3741BF0907F8A
:10014600E4743EF0907F98E054EFF0907FE5E0FF96
:10015600907F98E04410F0907FE5EFF0901B3FE031
:10016600228F25852518E51B700FE525F45407C455
:100176000354F8FD7FC512010C907F98E04402F00D
:10018600740455186007907F98E054FDF0228F267E
:100196008D27E527600EAA2674010A1333C3DAFCFD
:1001A6004218800DAA2674010A1333C3DAFCF452EE
:1001B60018AF18120167228F828E83E0FAEF2401AE
:1001C600F582E43EF583E0C39A228F828E83E0FABD
:1001D60004F0EF2402F9E43EF8E92AF582E438F562
:1001E60083E0228F828E83E02DFAEF2402F9E43E2B
:1001F600F8E92AF582E438F583E022EF2401F58256
:10020600E43EF583E08F828E83FAE0C39A1422AB34
:1002160005EF2401F582E43EF583E0FA04F0EF24CD
:1002260002F9E43EF8E92AF582E438F583EBF02298
:100236008F828E83E02DF0228F2B8D2C8B2D7F4885
:100246007E2512020124AD50667D027F487E25126E
:1002560002157DFF7F487E2512021590264EE0FD91
:100266007F487E251202157D077F487E25120215DE
:10027600AD8C7F487E25120215AD2B7F487E251258
:100286000215AD2C7F487E25120215AD2D7F487EC6
:1002960025120215AD287F487E25120215AD297F4D
:1002A600487E25120215AD2A7F487E25120215903A
:1002B600264EE004F0228F2E8D2F7480652E601856
:1002C6007421452EFF1201395404600C7421452E09
:1002D600FF120139540470F4AD2F7421452EFF121C
:1002E600010C227D207FC912010C7F067E001200C0
:1002F600367D007FC912010C7D107FCA12010C7D6C
:10030600387FC412010C7DC77FC412010C7D2F7F7C
:100316002012010C7D2F7F6012010C7D2A7FA01216
:10032600010C7DD57FC112010C228D308B317FB03F
:10033600120139F532E53014600614603A0203B34F
:10034600E531600B14601514601D146022805E7424
:10035600EB55324408FD7FB012010C22740C453275
:10036600FD7FB012010C227D2B7FB112010C227D84
:10037600077FB112010C22E531600B146015146081
:100386001D146022802774EE55324402FD7FB012A0
:10039600010C2274034532FD7FB012010C227D2B25
:1003A6007FB112010C227D077FB112010C228F331F
:1003B600798F77007D477FB112010C7DCB7FA2122A
:1003C600010C7DB27FCC12010CE53360077D0F7FF7
:1003D600B012010C228F34E53424FFB3E43324FF3A
:1003E600B3E433FA75F005A4247CF9770075F005BB
:1003F600EAA4247DF975F005EAA4247EF975F005D2
:10040600EAA4247FF975F005EAA42480F97D8274B4
:100416002F4534FF12010C7D8074224534FF1201F2
:100426000C7D30742C4534FF12010C7D0774324567
:1004360034FF12010C7D0774334534FF12010C2280
:100446008F358D36E53560267D037FB112010C7D33
:10045600017FA112010C798DE76004799377017908
:100466008E7700798BE4F709F7798F770022798CFC
:10047600E536F719E4F722AC3774806F6033EF2462
:10048600FFB3E43324FFB3E433FA75F005A4247C08
:10049600F9770175F005EAA4247FF9A70575F0053B
:1004A600EAA4247EF9A70375F005EAA42480F9A737
:1004B60004228F388D397480653870030205DBE5B8
:1004C6003824FFB3E43324FFB3E43375F005A424E2
:1004D6007DF97701E53824FFB3E43324FFB3E43331
:1004E60075F005A4247FF9E7FD74324538FF120143
:1004F6000CE53824FFB3E43324FFB3E43375F00589
:10050600A4247FF9E7FD74334538FF12010CE53862
:1005160024FFB3E43324FFB3E43375F005A4247E4B
:10052600F9E7600C7DE074224538FF12010C800A61
:100536007D8074224538FF12010CE53960167D2F47
:1005460074304538FF12010C7D2F74314538FF1287
:10055600010C80147D0374304538FF12010C7D03B5
:1005660074314538FF12010C7D01AF381202BCE52B
:100576003824FFB3E43324FFB3E43375F005A42431
:100586007EF9E7602AE53824FFB3E43324FFB3E4B9
:100596003375F005A42480F9E7603A742C4538FFDA
:1005A6001201394480FD742C4538FF12010C227467
:1005B600224538FF1201394408FD74224538FF12DE
:1005C600010C742F4538FF1201394408FD742F457C
:1005D60038FF12010C228F3A7480653A70030206C6
:1005E60058E53A24FFB3E43324FFB3E43375F0054A
:1005F600A4247DF97700742F453AFF12013954F788
:10060600FD742F453AFF12010CE53A24FFB3E4339B
:1006160024FFB3E43375F005A4247EF9E76029E5E9
:100626003A24FFB3E43324FFB3E43375F005A4247E
:1006360080F9E76013742C453AFF120139547FFDA7
:10064600742C453AFF12010C7D807422453AFF1244
:10065600010C228F3B7480653B6020E53B24FFB391
:10066600E43324FFB3E43375F005A4247DF9E76091
:10067600031205DC7D01AF3B1202BC227FB11201E1
:1006860039F53C5402700302077079927700743C86
:10069600553C700302071924FC700302076524F415
:1006A600605124F0602F24F0600724FC60030207E9
:1006B6006C7D637FB112010C7D017FA112010C7963
:1006C6008F7707799077FF0977FF798E7700799290
:1006D600770402076C798FE7FA64076004EAB408C6
:1006E60007798F770602076C798E770679927702FB
:1006F60002076C798FE7FA64066004EAB4070A79A0
:100706008F770879927701805D798EE7B4065777FF
:100716000880537D037FB112010C798FE724F960BD
:100726000514600680117992770179907700097730
:1007360028798D7700802F798F7700798BE70947A5
:100746006024798EE7601F7D017FA112010C7993E9
:100756007701799077FF0977FF798E770080077D9B
:10076600437FB112010C79947701228F3D8C3E8D27
:100776003F8A408B417FC1120139E53D24FFB3E436
:100786003324FFB3E43375F005A4247EF987497555
:100796004D40E53D23235403F54AE5412405F58202
:1007A600E5403401F583E0F548E53DB48002800379
:1007B60002082E754900754D207994E7605AAF41BD
:1007C600AE4012020124F3504FAD4AAF41AE401283
:1007D60002157D0CAF41AE40120215E5412406F527
:1007E60082E5403401F583E0FD04F0AF41AE4012EE
:1007F60002157D09AF41AE40120215754400E5446D
:10080600248BF9E7FDAF41AE401202150544E544DD
:1008160024F750EA7994770074045548600AE51C79
:1008260060061206825348FBE53F2404F582E53E46
:100836003401F583E0600302090E7420453DFF1282
:100846000139FA4548F5485410604D5348EFE549DB
:100856006034853F82853E83E0FAE53F2401F582D8
:10086600E4353EF583E0C39A701C7542007DFFAF08
:100876003D12010C0542E54224C050F17D08AF3D12
:100886001202BC02090EE53F2404F582E53E34015E
:10089600F583E54DF002090E7480653D6015E53F70
:1008A6002407F582E53E3401F583E0F404258C2423
:1008B6006F401AE53DB48050E53F2407F582E53EDA
:1008C6003401F583E0F404258C2407503BE53F24EE
:1008D60007F582E53E3401F583E58CF07424453D49
:1008E600FF120139F52AE53F2406F582E53E34017B
:1008F600F583E0F529853D287B6F7D747F581202CC
:100906003E7D01AF3D1202BCE53F2404F582E53E83
:100916003401F583E07003020DF2AF3FAE3E1201E3
:10092600BDF54224FC4003020DF27D03AF3FAE3E0F
:100936001201E9FB7A00EB2404FBE43AFAAD427CAF
:1009460000D3EB9DEA9C30D202B2E720E703020D0A
:10095600F2E53F2407F582E53E3401F583E58CF0A8
:10096600AF3FAE3E1201D0F54AAF3FAE3E1201D0C8
:10097600F54BAF3FAE3E1201D0F54CAF3FAE3E1247
:1009860001D0F543E53F2406F582E53E3401F583C3
:10099600E0FA654C602DE53F2406F582E53E34011C
:1009A600F583E0F52A854C29853D287B517D457FD9
:1009B6005312023EE53F2406F582E53E3401F583F7
:1009C600E54CF0E53F2406F582E53E3401F583E08B
:1009D60004F0E54B603A14602724FE600D14603085
:1009E60014601D24FE6003020C9AAF3D120659E501
:1009F6003F2404F582E53E3401F583E4F0020DAFB1
:100A0600E53F2404F582E53E3401F583E04480F0B9
:100A1600E53F2404F582E53E3401F583E0B4FF4F5B
:100A2600AD43AF3FAE3E1202367401654B600AE538
:100A36004BB405028003020DAFE53F2404F582E5C1
:100A46003E3401F583E0F52A854329853D287B62FE
:100A56007D617F5812023EE53F2404F582E53E346F
:100A660001F583E4F07D01AF3D1202BC020DAFE556
:100A76003DB480397FB1120139543CFA6430602D9F
:100A86007FB1120139C0E0AF3FAE3E1201BDF52A7B
:100A9600798F8729D0028A287B317D447F211202F3
:100AA6003EAD43AF3FAE3E120236020DAFE53F24E8
:100AB60004F582E53E3401F583E0547FF544E543D1
:100AC600C395445003854344853F82853E83E0F5C4
:100AD6004EE53F2402F552E4353EF551E5446014F7
:100AE600E552254EF582E43551F583E0FDAF3D1222
:100AF600010C054EC3E5449401F542602AE55225F2
:100B06004EF582E43551F583E0F550054E901B3ED7
:100B1600F0907FE3741BF0907FE4743EF0907FE5E5
:100B2600E01542E54270D6853F82853E83E54EF06C
:100B3600E543C39544F543E53F2404F582E53E3499
:100B460001F583E0C39544F0E5437003020BEC85A1
:100B56003F82853E83E014F0FCE53F2402FBE4354A
:100B66003EFAEB2CF582E43AF583E543F0853F82C5
:100B7600853E83E014F0FCE53F2402FBE4353EFAB3
:100B8600EB2CF582E43AF583E54CF0853F82853E11
:100B960083E014F0FCE53F2402FBE4353EFAEB2C3F
:100BA600F582E43AF583E54BF0853F82853E83E0A6
:100BB60014F0FCE53F2402FBE4353EFAEB2CF5820B
:100BC600E43AF583E54AF0E53F2404F582E53E3450
:100BD60001F583E0547FF0E53F2406F582E53E34D7
:100BE60001F583E54CF07424453DFF120139F542C9
:100BF60054C06019E5496003020DAFE53F2404F5D2
:100C060082E53E3401F58374FFF0020DAFE53F2423
:100C160004F582E53E3401F583E06045E53F2404B2
:100C2600F582E53E3401F583E054807034E53F24D7
:100C360004F582E53E3401F583E07003020DAFE56D
:100C4600497003020DAF853F82853E83E0FAE53F9A
:100C56002401F582E4353EF583E0C39A6003020D74
:100C6600AF754208E5497014E53F2404F582E53E78
:100C76003401F583E05480600375420AAD42AF3D0E
:100C86001202BCE53F2404F582E53E3401F583E417
:100C9600F0020DAF754700754600754500E54360E7
:100CA6000B1543AF3FAE3E1201D0F545E543600B51
:100CB6001543AF3FAE3E1201D0F546E543600B1536
:100CC60043AF3FAE3E1201D0F547E543600D1543F5
:100CD600AF3FAE3E1201D0E54370F3E54B24F6B4C8
:100CE6000C004003020D9D901A73FA2A2A73751C94
:100CF60000020DAF7D637FB112010C799077010977
:100D06007790798D770179947701020DAFE53F24CD
:100D160004F582E53E3401F583E4F07D017FA112FE
:100D2600010C020DAFAB47AD46AF45120330020DC5
:100D3600AFAD46AF45120446806F854737AB46AD2B
:100D460045AF3D12047D80617F001203DB7F4012B8
:100D560003DB805575F005E54AA4247CF97700800D
:100D660048AD45AF3D1204B8E53F2404F582E53EA3
:100D76003401F583E4F0E5412404F582E5403401CD
:100D8600F583E4F05348EF8020AF3D1205DC80196F
:100D9600AF3D1206598012854C2A854B29853D2880
:100DA6007B437D497F4912023EE53F2404F582E5F7
:100DB6003E3401F583E06034AF3FAE3E1201BDF52F
:100DC6004224FC50277D03AF3FAE3E1201E9FB7A79
:100DD60000EB2404FBE43AFAAD427C00D3EB9DEA37
:100DE6009C30D202B2E730E703020957E5412404FA
:100DF600F582E5403401F583E06003020E7174204C
:100E0600453DFF120139FA4548F54854C0605CE596
:100E1600412404F582E5403401F583E54DF0E549CA
:100E260070467425453DFF120139F542AA4D1A5AFE
:100E3600F542FAE5412404F582E5403401F583EAFA
:100E4600F0700FE5412404F582E5403401F583E5B1
:100E56004DF0748055486010E5412404F582E54064
:100E66003401F583E04480F053483FE5412404F51E
:100E760082E5403401F583E07003021121E5412447
:100E860004F582E5403401F583E0B4FF02800302F5
:100E96000F1EAF41AE4012020124FC400302112195
:100EA600754203E53DB48003754207AD4AAF41AED6
:100EB60040120215AD42AF41AE40120215E5412483
:100EC60006F582E5403401F583E0FD04F0AF41AE5E
:100ED600401202157D00AF41AE40120215E54124D5
:100EE60004F582E5403401F583E4F07427453DFFBF
:100EF600120139C0E0AF41AE40120201F52A853D2C
:100F060028D0028A297B627D617F5212023E7D8053
:100F1600AF3D1202BC021121E5497034E5412404BB
:100F2600F582E5403401F583E0548060237427455B
:100F36003DFF120139F54254F0FA64A06012E54112
:100F46002404F582E5403401F58374FFF0020DF2C6
:100F5600E5412404F582E5403401F583E0547FF54C
:100F660044E5412401F582E43540F583E08541827C
:100F7600854083FAE0C39A14FB7A00AD447C00ED09
:100F86002408FDE43CFCD3ED9BEC9A30D202B2E798
:100F960020E703021121E5447003021102E5412412
:100FA60004F582E5403401F583E054806016E5449B
:100FB60024DF4010854443754201E53DB480137536
:100FC6004205800E754320754200E53DB4800375E9
:100FD6004204E5412401F582E43540F583E0FA0454
:100FE600F0E5412402FDE43540FCED2AF582E43CBF
:100FF600F583E54AF0E5412401F582E43540F583C1
:10100600E0FA04F0E5412402FDE43540FCED2AF562
:1010160082E43CF583E542F0E5412406F582E540AD
:101026003401F583E0FA04F0E5412401F582E43564
:1010360040F583E0FB04F0E5412402FDE43540FC85
:10104600ED2BF582E43CF583EAF0E5412401F582D7
:10105600E43540F583E0FA04F0E5412402FDE43589
:1010660040FCED2AF582E43CF583E543F0E54124B6
:1010760001F582E43540F583E0F54FE5412402F5BC
:1010860054E43540F553AF3D120139FAE554254F86
:10109600F582E43553F583EAF0054FE544C39543FD
:1010A600F544E5412404F582E5403401F583E0C3C7
:1010B6009543F01543E543602E907FE3741BF09053
:1010C6007FE4743EF0907FE5E542F0901B3EE0F54C
:1010D60042E554254FF582E43553F583E542F005A4
:1010E6004F1543E54370D2E5412401F582E43540CE
:1010F600F583E54FF0E5446003020FA37D80AF3D25
:101106001202BCE5412404F582E5403401F583E48E
:10111600F0E53DB480028003020DF2E5412405F5B9
:1011260082E5403401F583E548F0FAE53F2405F50C
:1011360082E53E3401F583EAF022E51BB4FF4E5307
:101146008EF8438E01907F9C7430F0907F93F090E0
:101156007FE274D2F0907F957404F0907F9E74FBCA
:10116600F0907F9874B8F0907F98E054BFF0907F2D
:1011760098E04408F0907F98E054DFF0751C007DFD
:101186000A7F8B1200237D0F7F7C120023E51BB4A0
:101196004B07907F98E054F7F0E51BB40115120257
:1011A600E97F001203B47F001203DB7F401203DBEA
:1011B600751C01E51B60097F047E00120036151BB5
:1011C600227D007F0012010C907F98E054F7F0908A
:1011D6007F98E054DFF0907F9CE4F0907F93F0904E
:1011E6007F98E054EFF0907F98E04440F0751BFF45
:1011F600228E558F568C578D588A598B5A85588210
:10120600855783E0540260030212E1E5582401F594
:1012160082E43557F583E0F55BE5562401F582E473
:101226003555F583E0FA855682855583FBE0C39BE9
:1012360014FBE55BD39B40030212E18A5DE556246D
:1012460002F55FE43555F55EE55A2403F582E4358B
:1012560059F583E0AB5B7A00FCEBC39404FBEA949C
:1012660000FAEC6B7003EA602AE55A2402F582E480
:101276003559F583E0F52AE55A2403F582E4355914
:10128600F583E0F529855B287B4C7D4F7F50120264
:101296003E803A855B5CE55B6025855A828559838D
:1012A600E0FAE55F255DF582E4355EF583EAF00553
:1012B6005AE55A70020559055D155CE55C70DBE57B
:1012C600562401F582E43555F583E55DF0E55824AD
:1012D60001F582E43557F5837440F0228E608F6104
:1012E6008C628D638A648B65856382856283E05434
:1012F60002600302137F856182856083E0FAE561FF
:101306002401F582E43560F583E0C39AF56624FC92
:1013160050677D03AF61AE601201E92404F567D31F
:1013260095665055856182856083E0F568E56124A0
:1013360002F56AE43560F569856766E5676023E569
:101346006A2568F582E43569F583E08565828564FA
:1013560083F00565E5657002056405681566E56652
:1013660070DD856182856083E568F0E5632401F5BB
:1013760082E43562F583E567F022907FD67406F045
:10138600907F92E4F075890175881043D820907F8C
:10139600A104F0907FE0E4F0907FE1F0907FDE74AE
:1013A6000FF0907FDFF0907F957404F0907F9E742D
:1013B600FBF0907F9874B8F0756B01E56B25E0FA49
:1013C60024C5F582E4347FF5837440F0E56B25E0AF
:1013D600FA24B4F582E4347FF5837402F0056BE5F4
:1013E6006B24FC50D6756B00AD6B7C007F087E01CC
:1013F60012195F74202FF57374203EF5728573827F
:10140600857283E4F0E5732401F582E43572F58391
:10141600E4F0E5732402F582E5723401F583E4F025
:10142600A3F0E5732404F582E5723401F583E4F054
:10143600E5732406F582E5723401F583E4F0E5737D
:101446002405F582E5723401F5837410F0056BE529
:101456006B24FA50931211C77F00120167752A0098
:101466007529007528007B6B7D687F6312023E75C7
:101476002A5E752900907F92E0F5287B727D657F54
:101486007612023E757802858C6B051E7576047998
:101496007DE760037576067982E76003437601AFE0
:1014A60076120167907FABE054106009907FAB74B1
:1014B60010F0021380907FABE054086014907FAB6D
:1014C6007408F07F001201671211C74387010213E7
:1014D60080907FABE0540170030218797577007530
:1014E6006D007408656D700302159D75F009E5774A
:1014F600A4256D901A9793249B601A24FD605D24A1
:10150600FC603B24FE602624FB607424FB7003020F
:10151600184002182274E8256DF582E4347FF583BD
:10152600E0F56C5478700302184002185674E825EA
:101536006DF582E4347FF583E0F57002184074E8B7
:10154600256DF582E4347FF583E0FB7A00E4FDE562
:1015560074FC4AF574EB4DF57502184074E8256D78
:10156600F582E4347FF583E0FF7E007D081219746E
:10157600E575FBE4FA4EF574EF4BF5750218407409
:10158600E8256DF582E4347FF583E0F57124F840B3
:101596000302184002185675F009E577A4256D90E8
:1015A6001A9793F57B901B0C75F00E12193A0218D8
:1015B600567480556C60197407556C25E0FA24B48E
:1015C600F582E4347FF583E0907F005401F08017C4
:1015D6007407556C25E0FA24C4F582E4347FF5835C
:1015E600E0907F005401F0907F01E4F0907FB574A5
:1015F60002F002186D907F00E4F0907F01F0907F7A
:10160600B57402F002186D747F556C70030218569B
:101616007480556C601F7407556C25E0FA24B4F588
:1016260082E4347FF5837401F07407556C907FD79C
:101636004410F0801B7407556C25E0FA24C4F5822B
:10164600E4347FF5837401F0907FD7E56C5407F09E
:10165600907FD7E04420F0907FD7E054DFF0021867
:101666006D747F556C70030218567480556C601546
:101676007407556C25E0FA24B4F582E4347FF583CB
:10168600E4F002186D7407556C25E0FA24C4F5825F
:10169600E4347FF583E4F002186D756E19756FA555
:1016A600907FD4E56EF0907FD5E56FF002186D75EA
:1016B6006E19756FB7907FD4E56EF0907FD5E56FA4
:1016C600F002186DE57125E02408F9876E09876F29
:1016D600E571B403607FFF7E0F1200D7FB7A00C06E
:1016E60002C0037FFE7E0F1200D7FF7E007D081228
:1016F6001974D0E02FFFD0E03EFEEF2400F56FEE28
:101706003401F56E757900AB797A00E56F2BFFE54C
:101716006E3AFE1200D7FA74002579F582E4347F1A
:10172600F583EAF00579E57924EA50DB907FB57414
:1017360016F002186D757A00E57125E02408F98720
:10174600020987038B828A83E06039AB6FAA6E0534
:101756006FBBFF02056E8B828A83E493FA740025C1
:101766007AF582E4347FF583EAF0057AE57125E0BF
:101776002408F987020987038B828A83E0FAE57ACF
:10178600C39A40C7E57125E02408F9870209870353
:101796008B828A83E0907FB5F002186D907F00E51A
:1017A60019F0907FB57401F002186DE5706008B409
:1017B6000102800302185685701902186D907F0089
:1017C600E51AF0907FB57401F002186DE5706008B7
:1017D600B40102800302185685701A02186D7FFF45
:1017E600120167AD70AF75AE741200A37F001201CF
:1017F60067AF75AE741200D7FA6570606A80517F64
:10180600FF120167AF75AE741200D7907F00F0909B
:101816007FB57401F07F00120167804B75F009E512
:1018260077A4256D901A9793FA74E8256DF582E4EE
:10183600347FF583E0FBEAB5030B056DE56D24F710
:1018460040030214E80577E57724F340030214E524
:10185600907FB47403F08015907F00E4F0907F01D0
:10186600F0907FB57402F0907FB47402F0907FAB75
:101876007401F0E51B6009121140858C6B02190793
:101886007B407A7E7DC67C7F7F207E201211F77B8F
:10189600287A217D207C207F001207717B807A7E4A
:1018A6007DB67C7F7F287E211212E27BC07A7D7D09
:1018B600C87C7F7F307E221211F77B387A237D30F9
:1018C6007C227F401207717B007A7E7DB87C7F7F09
:1018D600387E231212E27B407A7D7DCA7C7F7F4070
:1018E6007E241211F77B487A257D407C247F801266
:1018F60007717B807A7D7DBA7C7F7F487E251212B8
:10190600E2C3E58C956BF56BE578D3956B501E7548
:101916002A00752900856B78856B287B747D3E7F50
:101926003E12023EE57824D05003757800858C6B14
:0419360002149022E5
:10193A00CAC0E0E4936AA36009A3A3D5F0F5D0E096
:10194A00FA22E493FAA3E493F5828A83D0E0FAD0E8
:05195A00E0D0E0E473A1
:10195F00C0F0ED8FF0A4CFC5F0CCA42CCE8DF0A4A9
:05196F002EFED0F02265
:10197400ED540F600AFDC3EF33FFEE33FEDDF722B3
:0E198400E493F608A3EFB582F7EEB583F322E5
:00000001FF
